:020000040000fa
:080000000002040000000000f2
:020000040000fa
:04000800c80200002a
:020000040000fa
:04000c00c802000026
:020000040000fa
:04001000c802000022
:020000040000fa
:04001400c80200001e
:020000040000fa
:04001800c80200001a
:020000040000fa
:04001c00c802000016
:020000040000fa
:04002000c802000012
:020000040000fa
:04002400c80200000e
:020000040000fa
:04002800c80200000a
:020000040000fa
:04002c00c802000006
:020000040000fa
:04003000c802000002
:020000040000fa
:04003400c8020000fe
:020000040000fa
:04003800c8020000fa
:020000040000fa
:04003c00c8020000f6
:020000040000fa
:04004000c8020000f2
:020000040000fa
:04004400c8020000ee
:020000040000fa
:04004800c8020000ea
:020000040000fa
:04004c00c8020000e6
:020000040000fa
:04005000c8020000e2
:020000040000fa
:04005400c8020000de
:020000040000fa
:04005800c8020000da
:020000040000fa
:04005c00c8020000d6
:020000040000fa
:04006000c8020000d2
:020000040000fa
:04006400c8020000ce
:020000040000fa
:04006800c8020000ca
:020000040000fa
:04006c00c8020000c6
:020000040000fa
:04007000c8020000c2
:020000040000fa
:04007400c8020000be
:020000040000fa
:04007800c8020000ba
:020000040000fa
:04007c00c8020000b6
:020000040000fa
:04008000c8020000b2
:020000040000fa
:04008400c8020000ae
:020000040000fa
:04008800c8020000aa
:020000040000fa
:04008c00c8020000a6
:020000040000fa
:04009000c8020000a2
:020000040000fa
:04009400c80200009e
:020000040000fa
:04009800c80200009a
:020000040000fa
:04009c00c802000096
:020000040000fa
:0400a000c802000092
:020000040000fa
:0400a400c80200008e
:020000040000fa
:0400a800c80200008a
:020000040000fa
:0400ac00c802000086
:020000040000fa
:0400b000c802000082
:020000040000fa
:0400b400c80200007e
:020000040000fa
:0400b800c80200007a
:020000040000fa
:0400bc00c802000076
:020000040000fa
:0400c000c802000072
:020000040000fa
:0400c400c80200006e
:020000040000fa
:0400c800c80200006a
:020000040000fa
:0400cc00c802000066
:020000040000fa
:0400d000c802000062
:020000040000fa
:0400d400c80200005e
:020000040000fa
:0400d800c80200005a
:020000040000fa
:0400dc00c802000056
:020000040000fa
:0400e000c802000052
:020000040000fa
:0400e400c80200004e
:020000040000fa
:0400e800c80200004a
:020000040000fa
:0400ec00c802000046
:020000040000fa
:0400f000c802000042
:020000040000fa
:0400f400c80200003e
:020000040000fa
:0400f800c80200003a
:020000040000fa
:0400fc00c802000036
:020000040000fa
:04010000c802000031
:020000040000fa
:04010400c80200002d
:020000040000fa
:04010800c802000029
:020000040000fa
:04010c00c802000025
:020000040000fa
:04011000c802000021
:020000040000fa
:04011400c80200001d
:020000040000fa
:04011800c802000019
:020000040000fa
:04011c00c802000015
:020000040000fa
:04012000c802000011
:020000040000fa
:04012400c80200000d
:020000040000fa
:04012800c802000009
:020000040000fa
:04012c00c802000005
:020000040000fa
:04013000c802000001
:020000040000fa
:04013400c8020000fd
:020000040000fa
:04013800c8020000f9
:020000040000fa
:04013c00c8020000f5
:020000040000fa
:04014000c8020000f1
:020000040000fa
:04014400c8020000ed
:020000040000fa
:04014800c8020000e9
:020000040000fa
:04014c00c8020000e5
:020000040000fa
:04015000c8020000e1
:020000040000fa
:04020800c802000028
:020000040000fa
:04020c00c802000024
:020000040000fa
:04021000c802000020
:020000040000fa
:04021400c80200001c
:020000040000fa
:04021800c802000018
:020000040000fa
:04021c00c802000014
:020000040000fa
:04022000c802000010
:020000040000fa
:04022400c80200000c
:020000040000fa
:04022800c802000008
:020000040000fa
:04022c00c802000004
:020000040000fa
:04023000c802000000
:020000040000fa
:04023400c8020000fc
:020000040000fa
:04023800c8020000f8
:020000040000fa
:04023c00c8020000f4
:020000040000fa
:04024000c8020000f0
:020000040000fa
:04024400c8020000ec
:020000040000fa
:04024800c8020000e8
:020000040000fa
:04024c00c8020000e4
:020000040000fa
:04025000c8020000e0
:020000040000fa
:04025400c8020000dc
:020000040000fa
:04025800c8020000d8
:020000040000fa
:04025c00c8020000d4
:020000040000fa
:04026000c8020000d0
:020000040000fa
:04026400c8020000cc
:020000040000fa
:04026800c8020000c8
:020000040000fa
:04026c00c8020000c4
:020000040000fa
:04027000c8020000c0
:020000040000fa
:04027400c8020000bc
:020000040000fa
:04027800c8020000b8
:020000040000fa
:04027c00c8020000b4
:020000040000fa
:04028000c8020000b0
:020000040000fa
:04028400c8020000ac
:020000040000fa
:04028800c8020000a8
:020000040000fa
:04028c00c8020000a4
:020000040000fa
:04029000c8020000a0
:020000040000fa
:04029400c80200009c
:020000040000fa
:04029800c802000098
:020000040000fa
:04029c00c802000094
:020000040000fa
:0402a000c802000090
:020000040000fa
:0402a400c80200008c
:020000040000fa
:0402a800c802000088
:020000040000fa
:0402ac00c802000084
:020000040000fa
:0402b000c802000080
:020000040000fa
:0402b400c80200007c
:020000040000fa
:0402b800c802000078
:020000040000fa
:0402bc00c802000074
:020000040000fa
:0402c000c802000070
:020000040000fa
:0402c400c80200006c
:020000040000fa
:0402c800c802000068
:020000040000fa
:0402cc00c802000064
:020000040000fa
:0402d000c802000060
:020000040000fa
:0402d400c80200005c
:020000040000fa
:0402d800c802000058
:020000040000fa
:0402dc00c802000054
:020000040000fa
:0402e000c802000050
:020000040000fa
:0402e400c80200004c
:020000040000fa
:0402e800c802000048
:020000040000fa
:0402ec00c802000044
:020000040000fa
:0402f000c802000040
:020000040000fa
:0402f400c80200003c
:020000040000fa
:0402f800c802000038
:020000040000fa
:0402fc00c802000034
:020000040000fa
:04030000c80200002f
:020000040000fa
:04030400c80200002b
:020000040000fa
:04030800c802000027
:020000040000fa
:04030c00c802000023
:020000040000fa
:04031000c80200001f
:020000040000fa
:04031400c80200001b
:020000040000fa
:04031800c802000017
:020000040000fa
:04031c00c802000013
:020000040000fa
:04032000c80200000f
:020000040000fa
:04032400c80200000b
:020000040000fa
:04032800c802000007
:020000040000fa
:04032c00c802000003
:020000040000fa
:04033000c8020000ff
:020000040000fa
:04033400c8020000fb
:020000040000fa
:04033800c8020000f7
:020000040000fa
:04033c00c8020000f3
:020000040000fa
:04034000c8020000ef
:020000040000fa
:04034400c8020000eb
:020000040000fa
:04034800c8020000e7
:020000040000fa
:04034c00c8020000e3
:020000040000fa
:04035000c8020000df
:020000040000fa
:100400002f8620000eff20000e0188000000000053
:10041000000020000000e000020032000001200087
:100420002002880014000700660007000000e000ba
:1004300003003a00a0a920000100200002003700bc
:100440000000200001002000810f70000100320038
:1004500014000700000020000000e000020032004d
:100460000000020000000000260902000000000059
:100470000040da000000fe004440a900a003200074
:100480000000e0000300320000002000a00188000e
:100490004440a800000006008a1f78008b1f7800e7
:1004a0000000060091018800800478000000eb0045
:1004b0001a003700e284440032a0b4009905ba0063
:1004c000e284440032a0b4009906ba00e2844400f9
:1004d00032a0b4000006eb00476fde00fd07b2005b
:1004e000636ce10003003a00ebff07000000eb0043
:1004f0000a003700606ce10004003a00005deb0088
:100500008b05e900fdff3e00040037006168e10053
:10051000010032000086eb000b00070019c7ba008b
:100520001905ba000e04e00003003a000a00e000da
:10053000e0ff3a0000000600fe07b2009e018800be
:100540008a047800f5ff3700395dba008b05e900b1
:100550000c003200295dba008b05e900080032006a
:100560000c00e00003003a00e284440032a0b40032
:10057000f5ff370019ddba008b05e900faff3a00f4
:100580008904e800e184440032a0b40000000600c1
:100590000040da000000fe00000178001001e200d7
:1005a000020035001061a80011e1a80030088000a9
:1005b000410880000200e000010032000089be0016
:1005c0000000060000000500889fbe008a9fbe0054
:1005d0008c1f78009c000700a300330003866c008a
:1005e0006450e1002e0032006420e100330032004c
:1005f0006150e1002f0032006120e1003100320043
:1006000085855500eb07b000090020000804200094
:10061000050037000804440089844c000a003100ba
:100620000603430087834b000001530081815b0078
:10063000f8ff33000203be000800a00008044400d5
:1006400089844c00f6ff3900c639dd008301730050
:1006500001003200130020008904d1000884d30077
:100660000998a300050032000800a7000300a000bd
:100670008904d1000884d3008b05e8008904d100e7
:100680000884d3000001eb000281d2003300070090
:1006900001f0a1000cf0a70001f0a0007b003700e2
:1006a0006420e1007d0032000801be000200be00af
:1006b000f7ff37006120e100780032006000b800e9
:1006c000f3ff37000000200001f82700f0ff37009b
:1006d0000001be00470007000470a70003f0a1005e
:1006e0006509b100160032000d0035006828e100f0
:1006f00006003500f0ff2f00f1ff27000300e000a7
:1007000013003b000100280000000500000040002d
:10071000818048008502e900fcff3a0008003700ac
:10072000f88f420002003c008000eb000000050052
:100730008100d1000080d3008502e800fcff3a0070
:100740000300e00002003b0060001000e0801800a1
:10075000000006006011b80087003700810020000b
:10076000618055000b003d000b00200061fe2f0052
:100770000100e1001d00340082817100610164000c
:100780008904d1000884d3000000e800faff3a0091
:10079000710020006100640003007000020060002e
:1007a0000900320061044400e0844c000988a5007f
:1007b000050032008b05e8006808e10002003a00fd
:1007c0008904d1000884d300f20f20000258e10010
:1007d00005003d00c75ddd00f907b20089807500a6
:1007e00008007800000006000bf827008b00780056
:1007f00000000500c70ade00f107b200f50fb200e5
:1008000008003200e1cf4200020032000170a00077
:1008100024000500810f700001003200040805006b
:1008200044000500810f700002003a00140005002a
:100830008502e9000000400081c04800fcff3b0049
:100840000170a000240005000004be00e9ff0700bd
:100850000003be000405be000200be00e5ff070065
:10086000844f7500000006000200be006450e100e5
:10087000050036006420e100020036000968a3008c
:1008800001003a000800be000160a0004f06780099
:100890004f05be004f04be0000000600f0ff2f0011
:1008a000f1ff2700f9ff3700889fbe008a9fbe0036
:1008b0008c1f7800e4ff0700ebff330003866c0019
:1008c0006450e100240032006420e100270032007f
:1008d0006150e100220032006120e100210032007d
:1008e0008b854200eb07b1000134b800003ab80034
:1008f0000804420089844a00013ab8000030b80078
:100900008880400009014a000400330000004000d4
:1009100081804800020149008b05e900c909dd001a
:10092000830170000100320013002000c814de00b3
:100930004814dd004709de001200b200c808de00de
:100940000884700085ff070001f0a1000cf0a700eb
:1009500001f0a000cdff37006120e100cfff3200a1
:100960000801be000200be00f7ff37006150e10041
:10097000fcff3a00c9ff3700889fbe008a9fbe0077
:1009800000827000040271000482710026003200af
:100990000004be000200be006011b8006b09200018
:1009a000950220000182cf000a0039000541b10004
:1009b0000082cf00070039000541b1000982cf0055
:1009c000040039000541b1000882cf000100390060
:1009d0000541b10005425200120032000a003b00fe
:1009e00082817100610164008100d1000080d30028
:1009f0008984d3000884d3008b05e8000442e80012
:100a0000f7ff3a00070037000804440089844c00cf
:100a100000004800818048008b05e9000442e9009d
:100a2000f9ff3a004dff07004f05be004f04be001e
:100a3000000006000000eb00d7fe3700ee874700fd
:100a4000889fbe008a9fbe008c9fbe008e1f7800cc
:100a5000f0b79f0001067800820578000004780056
:100a6000080578000a047800b84678000d00fb00fd
:100a70008e0007000000e000f9ff3a00d0c2b3008a
:100a800080cf56000300320000c0e90080cf56003e
:100a900002003a000a05e8000100370080467800ad
:100aa0000b00e00005003500e18f55000300320027
:100ab00040022000808f5500060034006044b800da
:100ac0000c00e000720032007fb09700000e78004a
:100ad000480037000b00e0000e003200f08f550098
:100ae0001a003a0000c3b3009a4f100017003a00f2
:100af0001a40900081c7b300814f500003003200bc
:100b000081c5b300814f500010003a000a85e8000b
:100b10000e003700ab00200000c3b3009a4f100056
:100b20000a003a001a40900081c7b300814f50007c
:100b3000040032008b00200081c5b300814f5000bb
:100b400002003a000a85e8000b0120000a00780044
:100b5000000278000400780001c3b300b0cf100099
:100b6000fbff3200040778006044b800b4b79f0070
:100b70000d0037004181200081405000c1ef9f00ef
:100b80006159b9000800be00770007004fea9700de
:100b90000401fb00cf91de00c8b79f00d9b79f00ca
:100ba00002044000838448008e0278003e00fb006f
:100bb00085bf9f00450007000b017800800078008a
:100bc000408120004e0007008fba97000000e0002f
:100bd000e8ff3a003fb29700850f550007003a0042
:100be0006044b8000c00e00029003200ffb297001a
:100bf000050e78006044b8002500370004825200da
:100c00009083200060c07d000000fb0000025200c5
:100c10001700330011003a004fe997000200fb0073
:100c2000cf80de000000540081805c00800f540003
:100c3000818f5c00090039006159b90085bf9f00b0
:100c4000390007008fba97004fb19700dfb19700c6
:100c5000820f5000838f58000500320020022000d0
:100c6000f04288000084eb008084eb000500370030
:100c7000d0c2b30080cf560002003a0060041400d6
:100c8000e0841c000c00e00001003200050e78003a
:100c90000800be004f0778004f06be004f05be009b
:100ca0004f04be00ef00b100000006006900e10043
:100cb000040035006d00e100030034000002b100c3
:100cc00001003200000005001000050080007800df
:100cd0001104b100030035009101b10001003c0096
:100ce0000050a00000000600004380000000e0006b
:100cf0000100320000000100e08520000000060035
:100d000003003700b0cf1000050032000201e900f7
:100d1000800178000200e000faff3a0000000500c0
:100d200003007800000006006022b80006022000e0
:100d30000000d0008180d2000482d2008582d200df
:100d40000000a0000202520083825a00030031001a
:100d50000202420083824a000000a1000603e9006b
:100d6000f3ff3a0000000600020ab900001bb900b8
:100d70000200b8008100420081004300000006002c
:020000040000fa
:100d800030310000323300003435000036370000c7
:100d900038390000004d000061780000207200002a
:100da0006573000065740000617400000054000069
:100db000656d0000702000006d610000783a000051
:100dc00020000000546500006d700000206d0000e0
:100dd000696e00003a20000000540000656d0000bc
:100de000706500007261000074750000726100009f
:040df00000000000ff
:020000040000fa
:100df4000800fa0030079800be009000803e2000f2
:100e04000088b90000007800000f780008ff070090
:100e140010079800210798000000000004ff070055
:100e24000001be001e0078006102b9001e0090009f
:100e3400ae0090000400400085804800800f5100ff
:100e4400818f5900f5ff35000080fa00000006008c
:100e54000200fa00004f78001e00fb0061006000f1
:100e6400004078000004e00002003200ca42a800fa
:100e740001003700ca42a9001e00fb0062006000a6
:100e84000000e00002003200ca62a800010037003e
:100e9400ca62a9001e00fb00640060000000e000bc
:100ea40002003200ca82a80001003700ca82a900e9
:100eb4001e00fb00680060000000e0000200320039
:100ec400caa2a80001003700caa2a9000080fa0043
:100ed400000006000200fa00004f7800ca02a900d0
:100ee4001e407800daff0700ca22a8004000200054
:100ef400bfff0700ca22a9000080fa000000060014
:100f04000000fa000040eb00f2ff070010c0b3003d
:100f1400f0ff07000080fa00000006000600fa0057
:100f240040479800514798000040eb00004f78007c
:100f34000040eb00104798004e409000e14f5000f5
:100f44000f003a005e409000f047b0002047980040
:100f54002e4090000000fb004480de00004f78002b
:100f64002e4090006f406000104798001e407800ab
:100f7400d8ff07001e409000d6ff0700120037007c
:100f84004e409000e24f50000f003a00de409000c7
:100f9400f0cbb30000c04000204798002e409000e2
:100fa4000000fb004480de00004f78002e409000db
:100fb4006f406000104798001e407800c5ff07008e
:100fc4001e409000c3ff07000080fa0000000600e6
:100fd4000200fa000040eb009dff0700f0ff27002d
:100fe400000f780002003700000000001e0fe90027
:100ff4001e0078000000e000fbff340030c0b300a6
:10100400b4ff07005000200079ff070030c0b30090
:10101400b0ff0700b000200075ff070030c0b30028
:10102400acff070020c0b300aaff070020c0b30034
:10103400a8ff070080c0b300a6ff07000040eb0034
:10104400a4ff0700c0c0b300a2ff07000040eb00ec
:10105400a0ff070060c0b3009eff07000080fa00f5
:10106400000006000600fa00404798004e40900039
:101074006f40600020479800ce40900000cfb3003e
:1010840000c0600030479800ca02a8003e409000ab
:101094000000fb004480de00004078006cff070085
:1010a400ca22a8000080eb00000f7800020037007d
:1010b400000000001e0fe9001e0078000000e000a0
:1010c400fbff3400ca22a9002e40900060ff0700f5
:1010d400ca22a8000080eb00000f7800020037004d
:1010e400000000001e0fe9001e0078000000e00070
:1010f400fbff3400ca22a9000080fa0000000600a9
:101104000400fa00100798000000eb00000f7800bc
:10111400060037001e0078009e009000008040000a
:1011240010407800cfff07001e0fe8001e00780073
:101134009e00900000804000104078000004e00011
:10114400f4ff3a000080fa00000006001400fa00e0
:10115400000f9800110f9800006c2800e40047006d
:101164000a000900b0587800b000b1009e08900051
:10117400010f78000e0890000000e00007003d0019
:101184001e007800d1c2b300014878001e0fe800a9
:101194000e0890000000ea00000f98008e089000ee
:1011a400110798001e0fe8001e01900070662600cb
:1011b4000090b900c288de004f90de00008050002d
:1011c400100798001e0090000000e000f5ff3a00b0
:1011d4001e0078008040eb00014878001e0fe900f3
:1011e4008e089000706626000089b9004299de00de
:1011f4004f88de00000051006a01b9000200780047
:101204000080500000004700c04090001e0078009d
:10121400014878000e099000706626000090b9001d
:10122400c288de004f90de0000805000000f98005e
:101234000e0890000000e000e8ff3a001e0890004d
:101244000080fa00000006000200fa00c022ef004d
:10125400c822ef00c002a800c042a800c062a800d3
:10126400c082a8002023ef002823ef00e0ff2f0016
:10127400601988003023ef00400e20000019880018
:101284002223ef0050f021002019880021e3a80058
:101294004fff07002023a900190037000018800021
:1012a4008000eb002afd07001040880021408800e0
:1012b4001040800021408000b2ff2300c3092400b5
:1012c40078fd07001040880021408800104080000d
:1012d400214080000200200003122400b9fc070012
:1012e4003040880041408800304080004140800008
:1012f400f6fc070000007800a180200093ff07009f
:1013040000198000610060000000e000e3ff3a0083
:10131400a20020008000eb00a0802000c6fd070092
:10132400000f78001e007800f60f500002003c0009
:10133400cb82a90001003700cb82a80000408000c6
:101344009e007800808f5000050034009e007800d5
:101354000140880000408000c18020007bff07001e
:101364009040800011c0b3001e017800800f51002e
:10137400010035008040eb000240800010c0b30043
:101384009e017800828f5100010035000040eb007f
:1013940000c060000004e000050032009e007800f8
:1013a4009140880090408000e180200067ff0700a2
:1013b40010168000640060000000e00009003a009c
:1013c4000028ef00803e200090408800ccfe0700fb
:1013d40021c0b30010c0b300d0fe0700b06c2800d9
:1013e40047ff070010168000680060000000e0005e
:1013f40018003a00c2fe070021c0b30010c0b300b9
:10140400c6fe0700706d28003dff070041c0b30011
:1014140020c0b300c1fe07001028ef000800370009
:1014240081408000c080200000804000104078008f
:101434000cff0700804080000000e8008040880026
:1014440080408000e10f5000f5ff3400f0cdb30080
:1014540004ff070010168000700060000000e00028
:1014640018003a00a6fe070021c0b30010c0b30064
:10147400aafe0700206e280021ff070041c0b30028
:1014840020c0b300a5fe07001028ef0008003700b5
:1014940081408000e08020000080400010407800ff
:1014a400f0fe0700804080000000e80080408800d3
:1014b40080408000e10f5000f5ff3400f0cdb30010
:1014c400e8fe07008efe070021c0b30010c0b30081
:1014d40092fe0700d06e280009ff070041c0b30048
:1014e40020c0b3008dfe07001028ef00080037006d
:1014f40081408000a08020000080400010407800df
:10150400d8fe0700804080000000e800804088008a
:1015140080408000e10f5000f5ff3400f0cdb300af
:10152400d0fe070030c4b300cefe070059ff3700d9
:020000040000fa
:101534000008000012000000000000001208000073
:101544000200000002000000e8030000140800008c
:101554004a0000000200000030313200333435000c
:101564003637380039616200636465006667680075
:10157400696a6b006c6d6e006f7071007273740039
:101584007576770078797a00000000002115110043
:101594000e0d0c000b0b0a000a09090009090900c9
:1015a40008080800080808000807070007070700dc
:1015b4000707070007070700070700005e08000089
:0c15c40004000000000000000000000017
:00000001FF
